{
  "_format": "hh-sol-artifact-1",
  "contractName": "YourContract",
  "sourceName": "contracts/YourContract.sol",
  "abi": [
    {
      "inputs": [
        {
          "internalType": "string",
          "name": "_greeting",
          "type": "string"
        }
      ],
      "stateMutability": "nonpayable",
      "type": "constructor"
    },
    {
      "inputs": [],
      "name": "bla",
      "outputs": [
        {
          "internalType": "string",
          "name": "",
          "type": "string"
        }
      ],
      "stateMutability": "view",
      "type": "function"
    },
    {
      "inputs": [],
      "name": "greeting",
      "outputs": [
        {
          "internalType": "string",
          "name": "",
          "type": "string"
        }
      ],
      "stateMutability": "view",
      "type": "function"
    },
    {
      "inputs": [
        {
          "internalType": "string",
          "name": "_greeting",
          "type": "string"
        }
      ],
      "name": "setGreeting",
      "outputs": [],
      "stateMutability": "nonpayable",
      "type": "function"
    }
  ],
  "bytecode": "0x60806040523480156200001157600080fd5b5060405162000d3c38038062000d3c8339818101604052810190620000379190620003a3565b6200006760405180606001604052806025815260200162000d1760259139826200008760201b620002851760201c565b80600090805190602001906200007f92919062000156565b5050620004f1565b620001298282604051602401620000a092919062000451565b6040516020818303038152906040527f4b5c4277000000000000000000000000000000000000000000000000000000007bffffffffffffffffffffffffffffffffffffffffffffffffffffffff19166020820180517bffffffffffffffffffffffffffffffffffffffffffffffffffffffff83818316178352505050506200012d60201b60201c565b5050565b60008151905060006a636f6e736f6c652e6c6f679050602083016000808483855afa5050505050565b8280546200016490620004bb565b90600052602060002090601f016020900481019282620001885760008555620001d4565b82601f10620001a357805160ff1916838001178555620001d4565b82800160010185558215620001d4579182015b82811115620001d3578251825591602001919060010190620001b6565b5b509050620001e39190620001e7565b5090565b5b8082111562000202576000816000905550600101620001e8565b5090565b6000604051905090565b600080fd5b600080fd5b600080fd5b600080fd5b6000601f19601f8301169050919050565b7f4e487b7100000000000000000000000000000000000000000000000000000000600052604160045260246000fd5b6200026f8262000224565b810181811067ffffffffffffffff8211171562000291576200029062000235565b5b80604052505050565b6000620002a662000206565b9050620002b4828262000264565b919050565b600067ffffffffffffffff821115620002d757620002d662000235565b5b620002e28262000224565b9050602081019050919050565b60005b838110156200030f578082015181840152602081019050620002f2565b838111156200031f576000848401525b50505050565b60006200033c6200033684620002b9565b6200029a565b9050828152602081018484840111156200035b576200035a6200021f565b5b62000368848285620002ef565b509392505050565b600082601f8301126200038857620003876200021a565b5b81516200039a84826020860162000325565b91505092915050565b600060208284031215620003bc57620003bb62000210565b5b600082015167ffffffffffffffff811115620003dd57620003dc62000215565b5b620003eb8482850162000370565b91505092915050565b600081519050919050565b600082825260208201905092915050565b60006200041d82620003f4565b620004298185620003ff565b93506200043b818560208601620002ef565b620004468162000224565b840191505092915050565b600060408201905081810360008301526200046d818562000410565b9050818103602083015262000483818462000410565b90509392505050565b7f4e487b7100000000000000000000000000000000000000000000000000000000600052602260045260246000fd5b60006002820490506001821680620004d457607f821691505b60208210811415620004eb57620004ea6200048c565b5b50919050565b61081680620005016000396000f3fe608060405234801561001057600080fd5b50600436106100415760003560e01c8063a413686214610046578063ef690cc014610062578063f07494a014610080575b600080fd5b610060600480360381019061005b91906105e6565b61009e565b005b61006a610165565b60405161007791906106b7565b60405180910390f35b6100886101f3565b60405161009591906106b7565b60405180910390f35b61014b6040518060600160405280602381526020016107be60239139600080546100c790610708565b80601f01602080910402602001604051908101604052809291908181526020018280546100f390610708565b80156101405780601f1061011557610100808354040283529160200191610140565b820191906000526020600020905b81548152906001019060200180831161012357829003601f168201915b505050505083610321565b80600090805190602001906101619291906103e9565b5050565b6000805461017290610708565b80601f016020809104026020016040519081016040528092919081815260200182805461019e90610708565b80156101eb5780601f106101c0576101008083540402835291602001916101eb565b820191906000526020600020905b8154815290600101906020018083116101ce57829003601f168201915b505050505081565b60606000805461020290610708565b80601f016020809104026020016040519081016040528092919081815260200182805461022e90610708565b801561027b5780601f106102505761010080835404028352916020019161027b565b820191906000526020600020905b81548152906001019060200180831161025e57829003601f168201915b5050505050905090565b61031d828260405160240161029b92919061073a565b6040516020818303038152906040527f4b5c4277000000000000000000000000000000000000000000000000000000007bffffffffffffffffffffffffffffffffffffffffffffffffffffffff19166020820180517bffffffffffffffffffffffffffffffffffffffffffffffffffffffff83818316178352505050506103c0565b5050565b6103bb83838360405160240161033993929190610771565b6040516020818303038152906040527f2ced7cef000000000000000000000000000000000000000000000000000000007bffffffffffffffffffffffffffffffffffffffffffffffffffffffff19166020820180517bffffffffffffffffffffffffffffffffffffffffffffffffffffffff83818316178352505050506103c0565b505050565b60008151905060006a636f6e736f6c652e6c6f679050602083016000808483855afa5050505050565b8280546103f590610708565b90600052602060002090601f016020900481019282610417576000855561045e565b82601f1061043057805160ff191683800117855561045e565b8280016001018555821561045e579182015b8281111561045d578251825591602001919060010190610442565b5b50905061046b919061046f565b5090565b5b80821115610488576000816000905550600101610470565b5090565b6000604051905090565b600080fd5b600080fd5b600080fd5b600080fd5b6000601f19601f8301169050919050565b7f4e487b7100000000000000000000000000000000000000000000000000000000600052604160045260246000fd5b6104f3826104aa565b810181811067ffffffffffffffff82111715610512576105116104bb565b5b80604052505050565b600061052561048c565b905061053182826104ea565b919050565b600067ffffffffffffffff821115610551576105506104bb565b5b61055a826104aa565b9050602081019050919050565b82818337600083830152505050565b600061058961058484610536565b61051b565b9050828152602081018484840111156105a5576105a46104a5565b5b6105b0848285610567565b509392505050565b600082601f8301126105cd576105cc6104a0565b5b81356105dd848260208601610576565b91505092915050565b6000602082840312156105fc576105fb610496565b5b600082013567ffffffffffffffff81111561061a5761061961049b565b5b610626848285016105b8565b91505092915050565b600081519050919050565b600082825260208201905092915050565b60005b8381101561066957808201518184015260208101905061064e565b83811115610678576000848401525b50505050565b60006106898261062f565b610693818561063a565b93506106a381856020860161064b565b6106ac816104aa565b840191505092915050565b600060208201905081810360008301526106d1818461067e565b905092915050565b7f4e487b7100000000000000000000000000000000000000000000000000000000600052602260045260246000fd5b6000600282049050600182168061072057607f821691505b60208210811415610734576107336106d9565b5b50919050565b60006040820190508181036000830152610754818561067e565b90508181036020830152610768818461067e565b90509392505050565b6000606082019050818103600083015261078b818661067e565b9050818103602083015261079f818561067e565b905081810360408301526107b3818461067e565b905094935050505056fe4368616e67696e67206772656574696e672066726f6d202725732720746f2027257327a2646970667358221220226bf5e989e556eb95d6414c44fc697a9e852a786d6e83b381c9981df5887b2364736f6c634300080900334465706c6f79696e6720596f7572436f6e74726163742077697468206772656574696e673a",
  "linkReferences": {},
  "deployedLinkReferences": {}
}